:03000000020800F3
:0C080000787FE4F6D8FD758111020847EE
:0C08AA000A084079240000000000000053
:10088C0020A10720A0048508B02220A10730A004D5
:0E089C008509B02230A10630A003850AB022E3
:10080C0002088CE493A3F8E493A34003F68001F26E
:10081C0008DFF48029E493A3F85407240CC8C333ED
:10082C00C4540F4420C8834004F456800146F6DFBC
:10083C00E4800B01020408102040809008AAE47E9A
:10084C00019360BCA3FF543F30E509541FFEE493B1
:10085C00A360010ECF54C025E060A840B8E493A378
:10086C00FAE493A3F8E493A3C8C582C8CAC583CAA3
:10087C00F0A3C8C582C8CAC583CADFE9DEE780BE5B
:0108B6000041
:00000001FF
