:030000000208B043
:0C08B000787FE4F6D8FD7581070208553A
:0E08A100E4FFFE0FBF00010EBE01F8BFF4F52C
:0108AF002226
:10085500E4FBFAFDFCD2A61208A1C2A630A7FDE46E
:10086500F58AF58CD28C20A7FDC28CE47004E58A4C
:1008750060067E007F0180047E007F00AA06AB072C
:100885007C007D3A120800AC06AD07C3ED940AEC76
:0C08950094005004C2A080BDD2A080B925
:10080000BC000BBE0029EF8DF084FFADF022E4CCDC
:10081000F875F008EF2FFFEE33FEEC33FCEE9DECA5
:10082000984005FCEE9DFE0FD5F0E9E4CEFD22EDEB
:10083000F8F5F0EE8420D21CFEADF075F008EF2F35
:10084000FFED33FD4007985006D5F0F222C398FD26
:050850000FD5F0EA22C3
:00000001FF
