:03000000020800F3
:0C080000787FE4F6D8FD758108020847F7
:0308BF000108002D
:1008AD0075A0FFE50804540FF508F4F5A012088CA7
:0208BD0080F1C8
:10088C00E4FFFE758910758D7D758BCBD28E308F04
:10089C00FDC28EC28F0FBF00010EEF640A4E70E3D3
:0108AC002229
:10080C000208ADE493A3F8E493A34003F68001F24D
:10081C0008DFF48029E493A3F85407240CC8C333ED
:10082C00C4540F4420C8834004F456800146F6DFBC
:10083C00E4800B01020408102040809008BFE47E85
:10084C00019360BCA3FF543F30E509541FFEE493B1
:10085C00A360010ECF54C025E060A840B8E493A378
:10086C00FAE493A3F8E493A3C8C582C8CAC583CAA3
:10087C00F0A3C8C582C8CAC583CADFE9DEE780BE5B
:0108C2000035
:00000001FF
